{
  "contractName": "product",
  "abi": [
    {
      "inputs": [
        {
          "internalType": "bytes32",
          "name": "",
          "type": "bytes32"
        }
      ],
      "name": "vProducts",
      "outputs": [
        {
          "internalType": "bool",
          "name": "",
          "type": "bool"
        }
      ],
      "stateMutability": "view",
      "type": "function"
    },
    {
      "inputs": [
        {
          "internalType": "bytes32",
          "name": "productId",
          "type": "bytes32"
        },
        {
          "internalType": "bytes32",
          "name": "pName",
          "type": "bytes32"
        },
        {
          "internalType": "bytes32",
          "name": "pCost",
          "type": "bytes32"
        },
        {
          "internalType": "bytes32",
          "name": "pOwner",
          "type": "bytes32"
        },
        {
          "internalType": "bytes32",
          "name": "locationM",
          "type": "bytes32"
        },
        {
          "internalType": "bytes32",
          "name": "pDate",
          "type": "bytes32"
        }
      ],
      "name": "setProduct",
      "outputs": [],
      "stateMutability": "nonpayable",
      "type": "function"
    },
    {
      "inputs": [],
      "name": "viewProducts",
      "outputs": [
        {
          "internalType": "bytes32[]",
          "name": "",
          "type": "bytes32[]"
        },
        {
          "internalType": "bytes32[]",
          "name": "",
          "type": "bytes32[]"
        },
        {
          "internalType": "bytes32[]",
          "name": "",
          "type": "bytes32[]"
        },
        {
          "internalType": "bytes32[]",
          "name": "",
          "type": "bytes32[]"
        },
        {
          "internalType": "bytes32[]",
          "name": "",
          "type": "bytes32[]"
        },
        {
          "internalType": "bytes32[]",
          "name": "",
          "type": "bytes32[]"
        },
        {
          "internalType": "bytes32[]",
          "name": "",
          "type": "bytes32[]"
        }
      ],
      "stateMutability": "view",
      "type": "function"
    },
    {
      "inputs": [
        {
          "internalType": "bytes32",
          "name": "vProductId",
          "type": "bytes32"
        }
      ],
      "name": "verifyFakeness",
      "outputs": [
        {
          "internalType": "bytes32",
          "name": "",
          "type": "bytes32"
        },
        {
          "internalType": "bytes32",
          "name": "",
          "type": "bytes32"
        },
        {
          "internalType": "bytes32",
          "name": "",
          "type": "bytes32"
        },
        {
          "internalType": "bytes32",
          "name": "",
          "type": "bytes32"
        },
        {
          "internalType": "bytes32",
          "name": "",
          "type": "bytes32"
        },
        {
          "internalType": "bytes32",
          "name": "",
          "type": "bytes32"
        },
        {
          "internalType": "bytes32",
          "name": "",
          "type": "bytes32"
        }
      ],
      "stateMutability": "view",
      "type": "function"
    }
  ],
  "bytecode": "0x608060405234801561001057600080fd5b50610c5f806100206000396000f3fe608060405234801561001057600080fd5b506004361061004c5760003560e01c80631af8ecc9146100515780635f52c6091461008757806375d7b027146100a3578063f9f24da1146100d3575b600080fd5b61006b600480360381019061006691906108ac565b6100f7565b60405161007e97969594939291906108e8565b60405180910390f35b6100a1600480360381019061009c9190610957565b610448565b005b6100bd60048036038101906100b891906108ac565b6105e3565b6040516100ca91906109ff565b60405180910390f35b6100db610603565b6040516100ee9796959493929190610ad8565b60405180910390f35b600080600080600080600080600090506000806000905060008080549050111561016f57600091505b60008054905082101561016e578a6000838154811061014257610141610b78565b5b9060005260206000200154141561015b57819050600192505b818061016690610be0565b925050610120565b5b6001151583151514156103a4577f417661696c61626c650000000000000000000000000000000000000000000000600682815481106101b1576101b0610b78565b5b906000526020600020015414156102b357600081815481106101d6576101d5610b78565b5b9060005260206000200154600182815481106101f5576101f4610b78565b5b90600052602060002001546002838154811061021457610213610b78565b5b90600052602060002001546003848154811061023357610232610b78565b5b90600052602060002001546004858154811061025257610251610b78565b5b90600052602060002001546005868154811061027157610270610b78565b5b90600052602060002001547f4f726967696e616c000000000000000000000000000000000000000000000000995099509950995099509950995050505061043d565b600081815481106102c7576102c6610b78565b5b9060005260206000200154600182815481106102e6576102e5610b78565b5b90600052602060002001546002838154811061030557610304610b78565b5b90600052602060002001546003848154811061032457610323610b78565b5b90600052602060002001546004858154811061034357610342610b78565b5b90600052602060002001546005868154811061036257610361610b78565b5b90600052602060002001547f46616b6500000000000000000000000000000000000000000000000000000000995099509950995099509950995050505061043d565b7f4e41000000000000000000000000000000000000000000000000000000000000807f4e41000000000000000000000000000000000000000000000000000000000000807f4e41000000000000000000000000000000000000000000000000000000000000807f46616b650000000000000000000000000000000000000000000000000000000099509950995099509950995099505050505b919395979092949650565b6007600087815260200190815260200160002060009054906101000a900460ff161561047357600080fd5b60016007600088815260200190815260200160002060006101000a81548160ff021916908315150217905550600086908060018154018082558091505060019003906000526020600020016000909190919091505560018590806001815401808255809150506001900390600052602060002001600090919091909150556002849080600181540180825580915050600190039060005260206000200160009091909190915055600383908060018154018082558091505060019003906000526020600020016000909190919091505560048290806001815401808255809150506001900390600052602060002001600090919091909150556005819080600181540180825580915050600190039060005260206000200160009091909190915055600680600181540180825580915050600190039060005260206000200160007f417661696c61626c650000000000000000000000000000000000000000000000909190915055505050505050565b60076020528060005260406000206000915054906101000a900460ff1681565b606080606080606080606060006001600260036004600560068680548060200260200160405190810160405280929190818152602001828054801561066757602002820191906000526020600020905b815481526020019060010190808311610653575b50505050509650858054806020026020016040519081016040528092919081815260200182805480156106b957602002820191906000526020600020905b8154815260200190600101908083116106a5575b505050505095508480548060200260200160405190810160405280929190818152602001828054801561070b57602002820191906000526020600020905b8154815260200190600101908083116106f7575b505050505094508380548060200260200160405190810160405280929190818152602001828054801561075d57602002820191906000526020600020905b815481526020019060010190808311610749575b50505050509350828054806020026020016040519081016040528092919081815260200182805480156107af57602002820191906000526020600020905b81548152602001906001019080831161079b575b505050505092508180548060200260200160405190810160405280929190818152602001828054801561080157602002820191906000526020600020905b8154815260200190600101908083116107ed575b505050505091508080548060200260200160405190810160405280929190818152602001828054801561085357602002820191906000526020600020905b81548152602001906001019080831161083f575b50505050509050965096509650965096509650965090919293949596565b600080fd5b6000819050919050565b61088981610876565b811461089457600080fd5b50565b6000813590506108a681610880565b92915050565b6000602082840312156108c2576108c1610871565b5b60006108d084828501610897565b91505092915050565b6108e281610876565b82525050565b600060e0820190506108fd600083018a6108d9565b61090a60208301896108d9565b61091760408301886108d9565b61092460608301876108d9565b61093160808301866108d9565b61093e60a08301856108d9565b61094b60c08301846108d9565b98975050505050505050565b60008060008060008060c0878903121561097457610973610871565b5b600061098289828a01610897565b965050602061099389828a01610897565b95505060406109a489828a01610897565b94505060606109b589828a01610897565b93505060806109c689828a01610897565b92505060a06109d789828a01610897565b9150509295509295509295565b60008115159050919050565b6109f9816109e4565b82525050565b6000602082019050610a1460008301846109f0565b92915050565b600081519050919050565b600082825260208201905092915050565b6000819050602082019050919050565b610a4f81610876565b82525050565b6000610a618383610a46565b60208301905092915050565b6000602082019050919050565b6000610a8582610a1a565b610a8f8185610a25565b9350610a9a83610a36565b8060005b83811015610acb578151610ab28882610a55565b9750610abd83610a6d565b925050600181019050610a9e565b5085935050505092915050565b600060e0820190508181036000830152610af2818a610a7a565b90508181036020830152610b068189610a7a565b90508181036040830152610b1a8188610a7a565b90508181036060830152610b2e8187610a7a565b90508181036080830152610b428186610a7a565b905081810360a0830152610b568185610a7a565b905081810360c0830152610b6a8184610a7a565b905098975050505050505050565b7f4e487b7100000000000000000000000000000000000000000000000000000000600052603260045260246000fd5b7f4e487b7100000000000000000000000000000000000000000000000000000000600052601160045260246000fd5b6000819050919050565b6000610beb82610bd6565b91507fffffffffffffffffffffffffffffffffffffffffffffffffffffffffffffffff821415610c1e57610c1d610ba7565b5b60018201905091905056fea2646970667358221220a9da5d564a30069ca5524a468114c4a53f8a60e0b9c01bfe5e82df7df562a88d64736f6c634300080c0033",
  "immutableReferences": {},
  "source": "pragma solidity ^0.8.12;\n\ncontract product {\n    bytes32[] products;\n    bytes32[] names;\n    bytes32[] prices;\n    bytes32[] owners;\n    bytes32[] locations;\n    bytes32[] dates;\n    bytes32[] pStatus;\n\n    mapping(bytes32 => bool) public vProducts;\n\n    function setProduct(\n        bytes32 productId,\n        bytes32 pName,\n        bytes32 pCost,\n        bytes32 pOwner,\n        bytes32 locationM,\n        bytes32 pDate\n    ) public {\n        require(!vProducts[productId]);\n        vProducts[productId] = true;\n\n        products.push(productId);\n        names.push(pName);\n        prices.push(pCost);\n        owners.push(pOwner);\n        locations.push(locationM);\n        dates.push(pDate);\n        pStatus.push(\"Available\");\n    }\n\n    function viewProducts()\n        public\n        view\n        returns (\n            bytes32[] memory,\n            bytes32[] memory,\n            bytes32[] memory,\n            bytes32[] memory,\n            bytes32[] memory,\n            bytes32[] memory,\n            bytes32[] memory\n        )\n    {\n        return (products, names, prices, owners, locations, dates, pStatus);\n    }\n\n    // function sellProduct (bytes32 sProductId) public {\n    //     bytes32 status;\n    //     uint i;\n    //     uint j=0;\n\n    //     if(products.length>0) {\n    //         for(i=0;i<products.length;i++) {\n    //             if(products[i]==sProductId) {\n    //                 j=i;\n    //             }\n    //         }\n    //     }\n\n    //     status=pStatus[j];\n    //     if(status==\"Available\") {\n    //         pStatus[j]=\"NA\";\n    //     }\n    // }\n\n    function verifyFakeness(\n        bytes32 vProductId\n    )\n        public\n        view\n        returns (bytes32, bytes32, bytes32, bytes32, bytes32, bytes32, bytes32)\n    {\n        bool status = false;\n        uint i;\n        uint j = 0;\n\n        if (products.length > 0) {\n            for (i = 0; i < products.length; i++) {\n                if (products[i] == vProductId) {\n                    j = i;\n                    status = true;\n                }\n            }\n        }\n\n        if (status == true) {\n            if (pStatus[j] == \"Available\")\n                return (\n                    products[j],\n                    names[j],\n                    prices[j],\n                    owners[j],\n                    locations[j],\n                    dates[j],\n                    \"Original\"\n                );\n            else\n                return (\n                    products[j],\n                    names[j],\n                    prices[j],\n                    owners[j],\n                    locations[j],\n                    dates[j],\n                    \"Fake\"\n                );\n        } else {\n            return (\"NA\", \"NA\", \"NA\", \"NA\", \"NA\", \"NA\", \"Fake\");\n        }\n    }\n}\n",
  "sourcePath": "/home/kshitij/Volume/Code/fake-product-identification-blockchain/contracts/product.sol",
  "compiler": {
    "name": "solc",
    "version": "0.8.12+commit.f00d7308.Emscripten.clang"
  },
  "schemaVersion": "3.4.13",
  "updatedAt": "2023-05-01T23:19:07.626Z",
  "devdoc": {
    "kind": "dev",
    "methods": {},
    "version": 1
  },
  "userdoc": {
    "kind": "user",
    "methods": {},
    "version": 1
  }
}